:020000040800F2
:1000000078280020DD0100087B210008D51B0008AE
:10001000792100086D02000809280008000000008E
:100020000000000000000000000000004501000882
:10003000E302000800000000890100087D2200089A
:10004000F7010008F7010008F7010008F7010008B0
:10005000F7010008F7010008F7010008F7010008A0
:10006000F7010008F7010008F7010008F701000890
:10007000710200087D02000889020008950200084C
:10008000A1020008AD020008F7010008F70100080E
:10009000F7010008F7010008F7010008F701000860
:1000A000F7010008F7010008F7010008F701000850
:1000B000F7010008F7010008F7010008F701000840
:1000C000F7010008F7010008F7010008F701000830
:1000D000F701000889270008F5270008F701000844
:1000E000F7010008F7010008F7010008F701000810
:1000F000F7010008F7010008F7010008F701000800
:10010000F7010008F7010008F7010008F7010008EF
:10011000F7010008F701000801230008F7010008B3
:10012000F7010008F7010008F7010008F7010008CF
:10013000DFF80CD000F088F8004800475528000888
:1001400078280020224B19680868B0E8F00F80F387
:100150000988BFF36F8F4FF0000080F311884EF0D5
:100160000D0E70470000000006480068006880F32C
:10017000088862B661B6BFF34F8FBFF36F8F00DFA1
:1001800000BF00BF08ED00E0EFF30980BFF36F8F01
:100190000F4B1A6820E9F00F106008B54FF05000BF
:1001A00080F31188BFF34F8FBFF36F8F03F03EFAD8
:1001B0004FF0000080F31188BDE808401968086816
:1001C000B0E8F00F80F30988BFF36F8F704700BF6E
:1001D00020000020EFF305807047000006488047AC
:1001E00006480047FEE7FEE7FEE7FEE7FEE7FEE71C
:1001F000FEE7FEE7FEE7FEE7FF2200083101000808
:1002000040EA01039B0703D009E008C9121F08C098
:10021000042AFAD203E011F8013B00F8013B521E18
:10022000F9D27047D2B201E000F8012B491EFBD28F
:1002300070470022F6E710B513460A4604461946F1
:10024000FFF7F0FF204610BD064C074D06E0E068C2
:1002500040F0010394E8070098471034AC42F6D30D
:10026000FFF76AFFF840000818410008FEE70000A9
:10027000014800F0F5B8000078010020014800F0C6
:10028000EFB8000034010020014800F0E9B8000098
:1002900090020020014800F0E3B800004C0200206A
:1002A000014800F0DDB80000D4020020014800F051
:1002B000D7B800001803002030B590F84050012452
:1002C000AC40C56B6C60046863604368102B0368C6
:1002D00003D099600068C26030BD9A600068C16058
:1002E00030BD704772B6FEE710B590F821100022BD
:1002F000022905D00421816380F82020012010BD4F
:1003000001680B6823F00E030B6001680B6823F093
:1003100001030B6090F84030012404FA03F1C36B31
:10032000596080F8214080F82020104610BD000060
:100330002DE9F05F90F821100024022903D0042158
:100340008163012485E001680A6822F00E020A60D8
:1003500001680A6822F001020A603F4E3E4FB21562
:10036000DFF8F4C0DFF8F090DFF8ECA0DFF8E8B0D9
:10037000DFF8E4E00168783F13011502ACF1640C8A
:10038000A9F15009AAF13C0AABF1280BAEF1140E09
:100390004FF48018B14227D9B9420ED0614512D02E
:1003A00049451DD0514518D0594518D0714501D146
:1003B000424615E0294EB14201D1012210E0274EFC
:1003C0001436B14201D110220AE0244E2836B1423F
:1003D00006D0224A3C32914201D11A4600E02A4618
:1003E0001E49091F0A602BE0B94213D0614517D09E
:1003F000494522D051451DD059451DD0714501D1E7
:1004000042461AE0B14202D14FF0807215E0134E1D
:10041000B14201D1012210E0104E1436B14201D197
:1004200010220AE00D4E2836B14206D00B4A3C326B
:10043000914201D11A4600E02A46074980394A60B4
:10044000012180F82110002180F82010416B01B1BA
:1004500088472046BDE8F09F800002400804024023
:100460002DE9F05FC16B0B6801680A68046C4FF0FE
:10047000040808FA04F8844D844E854FDFF814C24E
:10048000DFF81492DFF814A2DFF814B2DFF814E2F8
:1004900018EA030F65D05FEA427862D50A689206CF
:1004A00003D40A6822F004020A60DFF8F0814FF4F6
:1004B0008062016808F1140813011402414524D92F
:1004C000A9420DD0B1420FD0B9421AD0614515D022
:1004D000494515D0514501D1120312E0594501D1CA
:1004E00004220EE0714501D140220AE06D4D143521
:1004F000A94206D06B4A2832914201D11A4600E047
:1005000022466749091F0A6029E0A94213D0B14277
:1005100015D0B94220D061451BD049451BD051456B
:1005200002D14FF4800217E0414502D14FF08062C2
:1005300012E0594501D104220EE0714501D140225B
:100540000AE0584D1435A94206D0564A2832914245
:1005500001D11A4600E022464B4908394A60C16A77
:1005600071E04FF0020808FA04F818EA030F70D09F
:100570005FEA82786DD50A68920606D40A6822F08E
:100580000A020A60012180F82110DFF810814FF47F
:100590000072016808F1140813011402414524D9BE
:1005A000A9420DD0B1420FD0B9421AD0614515D041
:1005B000494515D0514501D1120312E0594501D1E9
:1005C00002220EE0714501D120220AE0354D14359A
:1005D000A94206D0334A2832914201D11A4600E09E
:1005E00022462F49091F0A6029E0A94213D0B142CF
:1005F00015D0B94220D061451BD049451BD051458B
:1006000002D14FF4001217E0414502D14FF00072C1
:1006100012E0594501D102220EE0714501D120229C
:100620000AE0204D1435A94206D01E4A28329142D4
:1006300001D11A4600E02246134908394A600021D8
:1006400080F82010816A00291CD0BDE8F05F0847BF
:10065000FFE70825A5401D4214D0120712D50A68ED
:1006600022F00E020A6090F84020C36B012101FACB
:1006700002F25A60816380F82110002180F8201076
:10068000016BE0E7BDE8F09F080002401C0002405B
:100690003000024044000240580002406C0002401A
:1006A000080402401C04024030B560B11A4B0168D6
:1006B0001422994209D2194B0B44B3FBF2F2920077
:1006C0000264174A0AE0012030BD134B5B420B4421
:1006D000B3FBF2F2920002640F4A083AC2630222AC
:1006E00080F821200A6843F6F0739A43F0E9013458
:1006F0002343D0E902452C4323430469234344693F
:1007000023438469234313430B6000214163012287
:1007100042770177084630BD08040240F8FFFDBF6C
:100720000000024070B5044690F820000025012822
:100730000CD0012084F8200094F821600020012EC4
:1007400006D084F820000225284670BD022070BD26
:10075000022684F82160A0632068066826F001065E
:1007600006602046FFF7A8FDE06A002820680168BF
:1007700002D041F00E0106E021F004010160206882
:10078000016841F00A0101602068016841F001013F
:100790000160D9E770B5044600F00CF90546601C0D
:1007A00002D004480078044400F004F9401BA04241
:1007B000FAD370BD100000202DE9F84FDFF8C0918A
:1007C0000024A9F1040B23464FF00F0809F1040A95
:1007D000ABF1040ECCE00127A7403A40BA4272D1F7
:1007E000DFF8A0C14D68A5EB0C0665452BD00DDCEC
:1007F000032D34D005DC35B3012D19D0022D2FD1B6
:100800001BE0112D16D0122D2AD119E0B6F5881F44
:1008100019D006DCB6F5803F15D0B6F5801F1FD184
:1008200011E0B6F5001F0ED0B6F5041F18D10AE08E
:10083000CB6815E0CB681B1D12E0CB6808330FE0D6
:10084000CB680C330CE08B682BB1012B4FF0080305
:1008500003D0476104E0042302E0076100E00023C5
:10086000FF2A01D8064601E000F104064FEA84059C
:1008700001D9A5F12005376808FA05FC27EA0C071D
:1008800003FA05F547EA050737604D68ED006ED5B8
:100890003D4DAE6946F00106AE61AD6924F0030638
:1008A00005F001050095394D7719BE68A5072D0F94
:1008B00008FA05FC26EA0C06DFF8D4C0604503D12F
:1008C0004FF0000C25E052E0DFF8C8C0604502D1CF
:1008D0004FF0010C1DE0DFF8C0C0604502D14FF0C1
:1008E000020C16E0DFF8B4C0604502D14FF0030CF3
:1008F0000FE0DFF8ACC0604502D14FF0040C08E017
:10090000DFF8A0C0604502D14FF0050C01E04FF0C8
:10091000060C0CFA05FC4CEA060CC7F808C04D683A
:10092000D9F80060ED024D4601D5164300E096432C
:100930002E604D68DAF80060AD02554601D51643C9
:1009400000E096432E604D68DBF80060AD035D4625
:1009500001D5164300E096432E604D68DEF8006036
:10096000ED03754601D5164300E096432E60641CE6
:100970000A6832FA04F57FF42EAFBDE8F88F000064
:100980000804014000001110001002400000014066
:1009900000080140000C014000100140001401401B
:1009A00000180140001C01400AB1016170470904B0
:1009B000FBE700000148806870470000100000203D
:1009C000024881680278114481607047100000205D
:1009D000074810B5016841F010010160032000F0E4
:1009E000A7F80F2000F006F800F050F8002010BD26
:1009F0000020024030B505461F4887B0C16941F06C
:100A00001001C161C06906A900F010000590684698
:100A100000F03CF90398B0B100F058F940001749D4
:100A2000174AB0FBF1F11748491E0260416040F2DD
:100A3000E7320021C0E903218160816100F0CCFC34
:100A4000040003D015E000F041F9E8E70D4800F09C
:100A5000F1FC04000DD1362000F03CF8102D07D237
:100A600000222946362000F043F80748056000E0E0
:100A7000012407B0204630BD0010024040420F0064
:100A8000001000405C0B0020140000200F4808B547
:100A9000816941F001018161816901F001010091E9
:100AA000C16941F08051C161C069002200F08050ED
:100AB00000900F21901E00F01BF80549486820F0B7
:100AC000E06040F00070486008BD00000010024087
:100AD00000000140002809DB00F01F0201219140C5
:100AE0004009800000F1E020C0F8001170470000CC
:100AF000F0B40E4B1B68C3F30223C3F10704042CAC
:100B000000D904241D1D072D01D2002300E0DB1EA7
:100B1000012606FA04F56D1E0D409D409E40761E8E
:100B2000164045EA0601F0BC01F06FBE0CED00E096
:100B3000064A00F0070110684FF6FF03184040EA2C
:100B40000120034908431060704700000CED00E0ED
:100B50000000FA052DE9F0470D46040067D0DFF8E4
:100B60001881D8F8000000F00700A8420CD2D8F88D
:100B7000001021F007012943C8F80010D8F8000040
:100B800000F00700A84252D120683C4E810712D5E0
:100B9000400703D5706840F4E0607060207800077B
:100BA00003D5706840F4605070607068A16820F0F0
:100BB000F000084370602078C00727D060680128E3
:100BC00010D03168022810D0890700292FDA716807
:100BD00021F0030101437160FFF7ECFE074641F28B
:100BE00088390CE031688903EFE78901EDE7FFF709
:100BF000E1FEC11B494502D90320BDE8F0877068BA
:100C0000616800F00C00B0EB810FF0D1D8F8001053
:100C1000404601F00701A9420BD9016821F0070104
:100C200029430160006800F00700A84201D00120BC
:100C3000E3E72078400705D57068E16820F4E060BC
:100C4000084370602078000706D57068216920F499
:100C5000605040EAC100706000F058F87168084ABE
:100C6000C1F30311515CC84006490860064800689A
:100C7000FFF7C0FE0020C0E7002002400010024045
:100C8000BA4000081C000020140000200F2202605F
:100C90000C4A536803F003034360536803F0F00306
:100CA0008360536803F4E063C36052684FF4E06309
:100CB00003EAD20202610448006800F007000860FD
:100CC000704700000010024000200240044805491F
:100CD00000684968044AC1F30221515CC84070476A
:100CE0001C00002000100240CA40000804480549CA
:100CF00000684968044AC1F3C221515CC84070478A
:100D00001C00002000100240CA4000080E4B596829
:100D10000E4801F00C02042A11D0082A0FD10C4809
:100D2000C1F38342C903805C0AD55968084AC1F3FC
:100D30004041921E515C054A5043B0FBF1F07047B0
:100D400004494843704700000010024000127A0036
:100D5000AA40000800093D002DE9F84F04006FD0BB
:100D60002078BE4DC00747D06868C0F381000128D5
:100D700007D06868C0F38100022809D16868C00301
:100D800006D52868800337D560680028E7D033E0AF
:100D90006068B0F5803F0BD010B1B0F5A02F11D036
:100DA000286820F480302860286820F4802002E041
:100DB000286840F480302860606888B1FFF7FAFD49
:100DC000064609E0286840F480202860F0E7FFF735
:100DD000F1FD801B642873D828688003F7D50BE0E9
:100DE000FFF7E8FD064604E0FFF7E4FD801B6428FA
:100DF000F1D828688003F7D42078DFF86482800770
:100E00004FF0010A4FF0000939D5686810F00C0F57
:100E100007D06868C0F38100022809D16868C00360
:100E200006D42868800714D52069012808D110E06D
:100E30002069B0B1C8F800A0FFF7BCFD064605E088
:100E400007E1FFF7B7FD801B0228C4D82868800798
:100E5000F7D52868616920F0F80040EAC1002860F1
:100E60000DE0C8F80090FFF7A5FD064604E0FFF787
:100E7000A1FD801B022823D828688007F7D420789A
:100E800000072CD57748A169D9B1C0F800A0FFF7B9
:100E900091FD064604E0FFF78DFD801B02280FD868
:100EA000686A8007F7D570484FF4FA510068B0FBC4
:100EB000F1F0009000BF0098411E0091FAD20EE0C0
:100EC0007CE0C0F80090FFF775FD064604E0FFF7F0
:100ED00071FD801B022871D8686A8007F7D42078DA
:100EE00040075BD5E8690027C00008D4E86940F0F6
:100EF0008050E861E869012700F0805000905B486D
:100F00000168C90511D40168834641F4807101600C
:100F1000FFF750FD064604E0FFF74CFD801B6428F8
:100F20004CD8DBF80000C005F6D5E06801280AD0EF
:100F300008B1052813D0286A20F001002862286A29
:100F400020F0040002E0286A40F001002862E06816
:100F500041F2883B88B1FFF72DFD064609E0286A7B
:100F600040F004002862EEE7FFF724FD811B59459D
:100F70005BD8286A8007F7D50BE0FFF71BFD064614
:100F800004E0FFF717FD811B59454ED8286A8007FA
:100F9000F7D41FB1E86920F08050E861E069A8B398
:100FA0006968C1F38101022946D00228484606D06B
:100FB000C8F86000FFF7FEFC044639E035E047461C
:100FC000C8F86000FFF7F6FC064604E0FFF7F2FC05
:100FD000801B022829D828688001F7D4206AB0F540
:100FE000803F05D16868A16820F40030084368603C
:100FF000D4E908010843696821F474110843686062
:10100000C7F860A0FFF7D6FC044605E023E0FFF731
:10101000D1FC001B022808D828688001F7D51AE007
:10102000FFF7C8FC001B022802D90320BDE8F88F97
:1010300028688001F4D40EE00128F7D06868226A9D
:1010400000F48031914204D1616A00F4701088424A
:1010500001D00120EAE70020E8E70000001002408C
:1010600000004242800442421C0000200070004008
:1010700070B5040009D0606A002540B12561656142
:10108000A56294F8510040B10CE0012070BD606889
:10109000B0F5827FF4D0E561F2E784F85050204645
:1010A00000F040F8022084F851002068016821F027
:1010B00040010160A088218900F4827001F404419C
:1010C0000843A18901F400610843217C01F0020179
:1010D0000843217D01F001010843218B01F40071D7
:1010E0000843217F01F03801084394F8201001F0F3
:1010F00080010843218D01F40051084321680860F4
:10110000A069042101EA1040216848602068C16993
:1011100021F40061C1616565012084F8510000205F
:1011200070BD0000F0B585B000250446009501951E
:10113000029503950068284988424AD12748816969
:1011400041F480518161816901F480510491816988
:1011500041F0040181618069214E00F00400049097
:10116000A0200090022001900320039069463046A1
:10117000FFF722FB4020CDE9000569463046029585
:10118000FFF71AFB184E1748802701C61020A1C68A
:10119000154846F810597561B561F561FFF784FA95
:1011A00008B1FFF79FF8A66474620F4E0D484436ED
:1011B0001438C6E90005C6E9025735617561B561A5
:1011C0003046F561FFF770FA08B1FFF78BF8E66477
:1011D000746205B0F0BD0000003001400010024014
:1011E0000008014030000240340100202DE9FF4F8B
:1011F00081B0044690F85000012500270E9E9846C5
:10120000934601280FD0AA4684F850A0FFF7D2FBDE
:1012100094F8511081466268404601290DD0B2F51C
:10122000827F08D103E0022005B0BDE8F08FA268FC
:101230000AB9042901D00227C7E00299002968D021
:10124000BBF1000FFBD0B8F1000FF8D094F85110AB
:10125000042902D0052184F8511000216165C4F8E9
:1012600038B0A4F83E80A4F83C80029A2263A4F827
:101270003680A4F834802164616421680A685206CB
:1012800003D40A6842F040020A60E168B1F5006FD9
:10129000616803D0E1B3012843D07AE009B10128A5
:1012A00038D1206B21680088C860206B801C2063C7
:1012B000E08E401EE0862DE02068816889070DD50C
:1012C000E18E59B1012D09D1216B0988C160206BD4
:1012D000801C2063E08E401EE08600252068816827
:1012E000C9070BD0E18F49B1C068A16B0880A06B22
:1012F000801CA063E08F401EE0870125FFF75AFBAA
:10130000A0EB0900B04205D3701C03D003275AE0BC
:1013100007E056E0E08E0028CED1E08F0028CBD148
:101320003DE0206B216800780873206B401C20632F
:10133000E08E401EE0862CE02068816889070DD58C
:10134000E18E59B1012D09D1216B09780173206B10
:10135000401C2063E08E401EE086002520688168E6
:10136000C9070BD0E18F49B1C068A16B0870A06BB1
:10137000401CA063E08F401EE0870125FFF71AFBA9
:10138000A0EB0900B04202D3701C02D0BEE7002ED1
:10139000BCD0E08E0028CFD1E08F0028CCD14A46C7
:1013A0003146204600F0FAFE18B101272020606582
:1013B0000BE0A06818B92068C16880680090606D73
:1013C00008B1012701E084F851A0002084F8500002
:1013D000384629E77047704710B5040003D094F8E9
:1013E0003D0010B107E0012010BD002084F83C0052
:1013F000204600F01EF8022084F83D00211D2068E0
:1014000000F084FF012084F8460084F83E0084F850
:101410003F0084F8400084F8410084F8420084F8DA
:10142000430084F8440084F8450084F83D0000201F
:1014300010BD704790F83D10012901D00120704780
:10144000022180F83D100168CA6842F00102CA60BA
:1014500000680E4988420ED00D4988420BD0B0F189
:10146000804F08D00B49884205D00B49884202D0F2
:101470000A49884204D1816801F00701062903D096
:10148000016841F00101016000207047002C01401B
:10149000003401400004004000080040000C0040FF
:1014A000704770B50446006801694FF00005C943F4
:1014B000890715D4C168C943890711D4E91E0161A0
:1014C00001202077206880698007204602D0FFF73E
:1014D000E7FF04E000F098F8204600F096F8257742
:1014E00020680169C943490717D4C168C94349073E
:1014F00013D46FF004010161022020772068806915
:1015000010F4407F204602D0FFF7CAFF04E000F04D
:101510007BF8204600F079F8257720680169C943F7
:10152000090716D4C168C943090712D46FF008012E
:101530000161042020772068C0698007204602D01E
:10154000FFF7AEFF04E000F05FF8204600F05DF822
:10155000257720680169C943C90617D4C168C94302
:10156000C90613D46FF010010161082020772068AC
:10157000C06910F4407F204602D0FFF791FF04E0DD
:1015800000F042F8204600F040F825772068016915
:10159000C943C90708D1C168C943C90704D1891E15
:1015A0000161204600F032F820680169C94309064C
:1015B00009D4C168C943090605D46FF080010161EF
:1015C0002046FFF707FF20680169C943490609D48F
:1015D000C168C943490605D46FF040010161204646
:1015E00000F01EF820680169C94389060BD4C16860
:1015F000C943890607D46FF0200101612046BDE888
:101600007040FFF7E8BE70BD70477047006803493F
:10161000884201D1FFF7D4B97047000000100040A4
:101620007047704710B504460068406994F841104F
:10163000C0F3C010212911D180B12068143050E8C6
:10164000001F21F0800140E80012002AF5D1A06BB4
:1016500008B1FEF749FE204600F044FF20684069CB
:1016600094F84210C0F38010222911D180B1206873
:10167000143050E8001F21F0400140E80012002A19
:10168000F5D1E06B08B1FEF72FFE204600F003FF16
:10169000002010BD70470000F8B5016804460868D6
:1016A000CA684B6910F00F0F4FF0000559D003F0D6
:1016B000010602F49077374365D0C10705D0D10504
:1016C00003D5616C41F001016164410705D5D9077B
:1016D00003D0616C41F002016164810705D5D9072F
:1016E00003D0616C41F004016164010707D502F089
:1016F0002001314303D0616C41F008016164616CE9
:1017000000293AD0800604D5900602D5204600F084
:10171000F7FE20684069616CC0F38010090700D4AF
:1017200060B3204600F0B7FE20684069400621D52E
:101730002068143050E8001F21F0400140E80012FA
:10174000002AF5D1E06BA8B16D494163E06BFEF76B
:10175000EFFD002811D0E06B416B01B0BDE8F04017
:10176000084783060FD593060DD52046BDE8F840FF
:1017700000F0C6BE2046FFF78DFFF8BD2046FFF7FC
:1017800089FF6564F8BD266B2023012E7CD1C60637
:101790007AD5D60678D508684868009048694FF031
:1017A0000206400640D5E16B086840680004000C62
:1017B000E8D0A28D8242E5D9E085886920282DD025
:1017C00020680C3050E8001F21F4807140E80012BE
:1017D000002AF5D12068143050E8001F21F00101E3
:1017E00040E80012002AF5D12068143050E8001FAC
:1017F00021F0400140E80012002AF5D184F842307F
:10180000256320680C3050E8001F21F0100140E8EB
:101810000012002AF5D1E06BFEF766FD6663A08D2D
:10182000E18D401A81B22AE0A08DE18D401A81B28B
:10183000E08D0028A6D00029A4D020680C3050E804
:10184000002F22F4907240E80027002FF5D1206885
:10185000143050E8002F22F0010240E80027002F4A
:10186000F5D184F84230256320680C3050E8002F11
:1018700022F0100240E80023002BF5D166632046D9
:10188000FFF7CFFEF8BDFFE705062BD5150629D5D6
:1018900094F841002128F5D1A068B0F5805F01D10E
:1018A0002069B0B1206A411C21622168007848603B
:1018B000E08C401E0004000CE084E3D12068C16885
:1018C00021F08001C1602068C16841F04001C16021
:1018D000D8E7206A0088C0F308004860206A801CAE
:1018E0002062E5E74006CDD55006CBD5CA68204634
:1018F00022F04002CA6084F8413000F06AF9C1E782
:101900009923000870B5040004D094F84100002524
:1019100010B106E0012070BD84F84050204600F070
:1019200023F8242084F841002068C16821F4005184
:10193000C160204600F046FE2068016921F4904114
:1019400001612068416921F02A0141612068C16874
:1019500041F40051C1606564202084F8410084F89E
:1019600042006563002070BD2DE9F04186B000257E
:1019700000950195029503950446DFF880C1016842
:101980005F48022203235F4E80274FF01008614515
:101990005ED1816941F480418161816901F48041B6
:1019A0000491816941F0040181618069694600F018
:1019B000040004901002CDE9000203933046FEF7C4
:1019C000FBFE3015CDE90005694630460295FEF76D
:1019D000F3FE4E4E4C48C6E90005C6E90257356194
:1019E0007561B5613046F561FEF75EFE08B1FEF740
:1019F00079FCE6637462454E434844361438C6E9C0
:101A0000025735617561B561F561C6E90008304678
:101A1000FEF74AFE08B1FEF765FCA6630022052129
:101A200025207462FFF764F82520FFF753F8374844
:101A30004FF400623649903800F06EF83348903821
:101A40000068C16841F01001C16006B0BDE8F081D6
:101A5000DFF8C0C06145F8D1C16941F40031C1610E
:101A6000C16901F400310491816941F0040181618F
:101A70008069694600F0040004900420CDE900026A
:101A800003933046FEF798FE0820CDE9000569462D
:101A900030460295FEF790FE1C4E1B4888361430E7
:101AA000C6E90005C6E9025735617561B561304682
:101AB000F561FEF7F9FD08B1FEF714FCE663746208
:101AC000124E1148CC362830C6E90257356175618F
:101AD000B561F561C6E900083046FEF7E5FD08B1DD
:101AE000FEF700FCA6630022052126207462FEF7A3
:101AF000FFFF2620FEF7EEFFA7E7000000380140B9
:101B00000010024000080140580002404C02002032
:101B10005C0300200044004090F84230202B01D0AC
:101B20000220704721B11AB10023036300F0A6BD63
:101B300001207047704770472DE9F843044690F83C
:101B400041001F4615460E46202802D00220BDE85F
:101B5000F8837EB175B100206064212084F84100D3
:101B6000FEF728FFA5848046E584A068B0F5805F75
:101B700002D003E00120EAE7206910B135460026D3
:101B80000EE000250CE08021204600F0C1FDA0B948
:101B9000ADB115F8010B21684860E08C401EE0846F
:101BA000E08C43464FF0000200970028EBD14FF045
:101BB0004001204600F0ACFD30B10320C7E736F805
:101BC000020BC0F30800E6E7202084F84100002063
:101BD000BDE77047FEE7000000B585B0002001902A
:101BE00003901248816941F020018161816901F00F
:101BF00020010491816941F004018161816901F052
:101C000004010491816941F008018161806969469C
:101C100000F0080004904FF4E04000900220029091
:101C20000348FEF7C9FD05B000BD000000100240EA
:101C3000000C0140F0B506461D4617460C462A200A
:101C400000F04CF9304600F03FF9384600F03CF91E
:101C50002B2000F043F92234A0B200F035F92235F0
:101C6000A8B200F031F9BDE8F0402C2000F036B900
:101C70002DE9F04780461F46581E83B21646501E77
:101C800082B20D464046DDF82090FFF7D3FF0AE010
:101C9000444604E0484600F017F9641CA4B2B4427C
:101CA000F8D36D1CADB2BD42F2D3BDE8F0870000A1
:101CB00000B585B0002002900E48816941F02001F6
:101CC0008161816901F020010491816941F0040181
:101CD00081618069694600F004000490F020009062
:101CE00001200190032003900348FEF765FD05B035
:101CF00000BD0000001002400008014010B5FFF7D1
:101D0000D7FF112000F0EAF8362000F0E7F8702045
:101D100000F0F4F83A2000F0E1F8052000F0EEF8C9
:101D2000B22000F0DBF80C2000F0E8F80C2000F006
:101D3000E5F8002000F0E2F8332000F0DFF833206F
:101D400000F0DCF8B72000F0C9F8352000F0D6F834
:101D5000BB2000F0C3F8352000F0D0F8C02000F020
:101D6000BDF82C2000F0CAF8C22000F0B7F801201E
:101D700000F0C4F8C32000F0B1F8132000F0BEF862
:101D8000C42000F0ABF8202000F0B8F8C62000F026
:101D9000A5F80F2000F0B2F8D02000F09FF8A420A2
:101DA00000F0ACF8A12000F0A9F8D62000F096F8D9
:101DB000A12000F0A3F8E02000F090F8F02000F05F
:101DC0009DF8002000F09AF8042000F097F8042015
:101DD00000F094F8042000F091F8052000F08EF84F
:101DE000292000F08BF8332000F088F83E2000F026
:101DF00085F8382000F082F8122000F07FF81220D9
:101E000000F07CF8282000F079F8302000F076F817
:101E1000E12000F063F8F02000F070F8072000F0F7
:101E20006DF80A2000F06AF80D2000F067F80B202A
:101E300000F064F8072000F061F8282000F05EF858
:101E4000332000F05BF83E2000F058F8362000F018
:101E500055F8142000F052F8142000F04FF8292013
:101E600000F04CF8322000F049F82A2000F036F853
:101E7000002000F043F8222000F040F8002000F09D
:101E80003DF8CD2000F03AF82B2000F037F8002084
:101E900000F034F8002000F031F8012000F02EF8B6
:101EA0003F2000F02BF82C2000F018F8212000F043
:101EB00015F8112000F012F8C820FEF76BFCBDE801
:101EC0001040292000F00AB810B50446000A00F0BE
:101ED00015F8E0B2BDE8104000F010B810B5064C9F
:101EE000216841F48001216000F008F8206840F08A
:101EF0004000206010BD000010080140104A116829
:101F000041F4801111600021136843F40013136041
:101F10000306136802D543F0800301E043F4000395
:101F20001360136843F0200313604006491C000E41
:101F3000C9B20829E8D3106840F01000106070475B
:101F400010080140274808B5416941F0010141618D
:101F50004069254900F001000090244801604FF4D9
:101F600080414160402181608021C1600021016188
:101F700041618161C161FEF797FB08B1FEF7B2F9DB
:101F8000002205210C20FEF7B3FD0C20FEF7A2FD78
:101F9000002205210D20FEF7ABFD0D20FEF79AFD76
:101FA000002205210E20FEF7A3FD0E20FEF792FD74
:101FB000002205210F20FEF79BFD0F20FEF78AFD72
:101FC000002205211020FEF793FD1020FEF782FD70
:101FD000002205211120FEF78BFDBDE808401120ED
:101FE000FEF778BD00100240080002409800002073
:101FF00010B50A4A00210A4800F0C8FC094C074AFB
:10200000002120602432084800F0C0FC60600348D2
:10201000483000F05DFCA06010BD0000504000089A
:1020200075220008000000204928000830B585B05E
:1020300000241C480094019402940394816941F0A7
:1020400020018161816901F020010491816941F0E1
:1020500004018161816901F004010491816941F009
:10206000080181618069104D00F008000490002291
:1020700010212846FEF798FC10210120CDE9001020
:102080000220CDE9024069462846FEF795FB4FF451
:10209000E040CDE90004694604480294FEF78CFB59
:1020A00005B030BD0010024000080140000C0140A6
:1020B00010B5144C1248022120604FF48270606009
:1020C0000020A060C4E90301012161614902A1610E
:1020D0000821C4E907106062A0620720E062204680
:1020E000FEF7C6FF08B1FEF7FDF82068016841F071
:1020F00040010160BDE81040112000F03FB8000031
:1021000000300140DC0000200C4810B50A49016095
:102110004FF4E1314160002181600C22C160C0E9CF
:1021200004128161C161FFF7EDFB002803D0BDE817
:102130001040FEF7D7B810BD00380140BC010020A8
:102140000C4810B50A4901604FF4E13141600021AB
:1021500081600C22C160C0E904128161C161FFF796
:10216000D1FB002803D0BDE81040FEF7BBB810BD7E
:102170000044004004020020FEE7FEE701B582B003
:102180004FF47A700090012301AA02A90248FFF7D8
:102190002DF89DF804000EBDDC00002038B50B467C
:1021A000009204460022802100F008F8002804D0A4
:1021B000606D40F020006065032038BD2DE9F843D4
:1021C0001E46914688460446089DFEF7F3FB401BD9
:1021D000351AFEF7EFFB074625480068C0F3CB3001
:1021E000684338E0701C37D0FEF7E4FBC01BA84200
:1021F00003D215B1009860B32CE02068416821F04B
:10220000E00141606068B0F5827F0BD1A068B0F555
:10221000004F02D0B0F5806F04D12068016821F032
:1022200040010160A06AB0F5005F09D12068016833
:1022300021F4005101602068016841F400510160FF
:10224000012084F85100002084F850000320BDE8EC
:10225000F8830025401E00902068816838EA01005C
:1022600004D000204845BDD10020F0E70120F9E767
:102270001C000020012000F011FBFBE710B55020EE
:1022800080F31188BFF34F8FBFF36F8F01F044FDD0
:1022900018B104494FF080500860002080F3118885
:1022A00010BD000004ED00E030B58FB02821684675
:1022B000FDF7BFFF14210AA8FDF7BBFF01210804A9
:1022C00000240491CDE90010CDE908040294022510
:1022D00007956846FEF740FD08B172B6FEE70F208D
:1022E0000A90CDE90B540D9400210AA80E94FEF734
:1022F00031FC002801D072B6FEE70FB030BD704748
:102300000148FFF7CEB800005C0B0020F0B5026872
:102310001C4D1D4E1D4FDFF878C01E4B4FF0804EF8
:10232000A84209D0984207D0704505D0B04203D0EA
:10233000B84201D0604503D122F070044A682243BC
:10234000A84209D0984207D0704505D0B04203D0CA
:10235000B84201D0604503D122F44074CA682243D8
:102360004C6922F08002224302608A68C2620A68D5
:102370008262A84201D0984201D10969016301211A
:102380004161F0BD002C0140000400400008004005
:10239000000C00400034014010B5406A0021C185A6
:1023A000C184FFF777F910BD70B5446A20684069B1
:1023B00094F84110C0F3C0100025212904D118B1B0
:1023C000E584204600F08EF82068406994F84210B9
:1023D000C0F38010222904D118B1E585204600F011
:1023E0005AF8606C40F0100060642046FFF752F924
:1023F00070BD10B50146406A096809684FF00003D6
:1024000089062ED4C38501680C3151E8002F22F4CF
:10241000807241E80024002CF5D10168143151E8A4
:10242000002F22F0010241E80024002CF5D10168C0
:10243000143151E8002F22F0400241E80024002C22
:10244000F5D1202180F84210016B012909D10168E2
:102450000C3151E8002F22F0100241E80024002C3A
:10246000F5D14363016B012902D0FFF763FB10BD77
:10247000818DFFF7D6F810BD10B5406A0121416388
:10248000016B012902D0FFF756FB10BD818D490871
:10249000FFF7C7F810BD01680C3151E8002F22F496
:1024A000907241E80023002BF5D10168143151E806
:1024B000002F22F0010241E80023002BF5D1016B2F
:1024C000012909D101680C3151E8002F22F01002D6
:1024D00041E80023002BF5D1202180F84210002193
:1024E0000163704701680C3151E8002F22F0C002EF
:1024F00041E80023002BF5D1202180F841107047DE
:1025000008B590F84210222901D0022008BD816848
:102510004FF48053994201D1026922B1826A9942F3
:102520001BD049B10AE00268816A5268C2F308020E
:102530000A80816A891C08E0016971B101684968F3
:1025400001F07F011170816A491C8162C18D491EB1
:102550000904090CC18503D01BE001684968F1E753
:102560000168CA6822F02002CA600168CA6822F4C1
:102570008072CA6001684A6922F001024A61202122
:1025800080F8421000214163026B012A03D0FFF75B
:10259000D1FA002008BD016301680C3151E8002F19
:1025A00022F0100241E80023002BF5D101680A68EF
:1025B000D20602D50A6849680091818DFFF731F88B
:1025C000E7E7000070B5044600680169E26821F49D
:1025D000405111430161A1682069014360690143D1
:1025E0002068C26841F20C639A430A43C2602068C3
:1025F0004169A26921F44071114341611E4920687B
:10260000884202D1FEF772FB01E0FEF75FFB00EBB0
:10261000C00101EB0011606864228000B1FBF0F39F
:10262000B3FBF2F36FF018067343B1FBF0F5B1FBA7
:10263000F0F605EB8305322303EB0515B5FBF2F548
:10264000B6FBF2F605F0F00505EB0615B1FBF0F66A
:10265000B1FBF0F0B0FBF2F06FF01801484306EB6D
:10266000800003EB0010B0FBF2F0216800F00F00D7
:102670002844886070BD00000038014037B582B042
:102680001346039A826204468385002060642221F7
:1026900084F84210E56B1B49A962E56B1A49E962AF
:1026A000E56B1A492963E16B48632168E06B091DFA
:1026B000FEF738F82068016840680090206948B14A
:1026C00020680C3050E8001F41F4807140E800128F
:1026D000002AF5D12068143050E8001F41F00101B4
:1026E00040E80012002AF5D12068143050E8001F9D
:1026F00041F0400140E80012002AF5D105B0002069
:1027000030BD0000F323000879240008A923000845
:102710002DE9F0411E46174688460446069D26E0F0
:10272000681C24D025B1FEF745F9801BA8421ED9AC
:1027300020680C3050E8001F21F4D07140E80012EE
:10274000002AF5D12068143050E8001F21F0010163
:1027500040E80012002AF5D1202084F8410084F8D6
:102760004200002084F840000320BDE8F08120688A
:10277000016838EA010004D00020B842D0D000201F
:10278000F3E70120F9E7000038B51548FEF784FFAC
:10279000134C20680068C043C0061FD42046FEF7D3
:1027A00041FF1048006840684FF4FA63C0F50060CC
:1027B00082B20D480D4902802046FFF7BDF9002284
:1027C00002210B48FEF7F0F84FF40062074920465B
:1027D000FFF7A2F9206801684068009038BD00004A
:1027E000BC0100204C0200200C0000205C030020F3
:1027F0000008014010B50348FEF74EFF014800688D
:10280000006810BD04020020FEE70907090E002839
:1028100004DB00F1E02080F80014704700F00F00A6
:1028200000F1E02080F8141D704702E008C8121F74
:1028300008C1002AFAD170477047002001E001C1A9
:10284000121F002AFBD170474FF4FA74204600F0A3
:1028500025F8FBE708B5FEF7BBF8FFF725FDFFF706
:10286000E5FBFFF76FFBFFF723FCFFF769FCFFF7C2
:102870004BFCFFF7B1F9FFF741FA4FF6FF7000216B
:102880000090AC234FF4A0720846FFF7F1F900F076
:1028900041F8FFF7ADFB00F059F8FEE710B5EFF394
:1028A000058149B9EFF3108131B908490968022956
:1028B00005D1EFF3118111B16FF0050403E000249D
:1028C00008B100F001FE204610BD0000700000209D
:1028D00010B54FF00001EFF30582BAB9EFF31082A3
:1028E000A2B90B4A1268022A02D1EFF311826AB927
:1028F00048B1D0E902202AB1202807D3104600F0C1
:10290000D5FE02E010B900F0C3FE0146084610BD36
:1029100070000020EFF3058058B9EFF3108040B944
:1029200009490868022801D030B109E0EFF31180AD
:1029300030B16FF00500704701200860002070473B
:102940004FF0FF30704700007000002010B5EFF32B
:10295000058060B9EFF3108048B90B490868022878
:1029600002D0012806D00BE0EFF3118040B16FF0E8
:10297000050010BD0220086000F00EFE002010BD12
:102980004FF0FF3010BD000070000020F0B585B0A2
:102990000B464FF00005EFF305810395A1BBEFF364
:1029A000108189BB21490968022902D1EFF3118105
:1029B00051BB48B3802618218DF8105004AC42B3A7
:1029C000176807B13C46976907B139464F1E382F43
:1029D00002D21779FF0702D0002005B0F0BD576979
:1029E00007B1BE08D2F808C0BCF1000F0DD0D56801
:1029F0005C2D18D312693AB137B18DE80610324612
:102A0000214601F048F903900DE0D7685FB91269DB
:102A10004AB903AACDE90012B2B2214601F00EF97B
:102A2000012800D003950398D7E70000700000202C
:102A30002DE9F041134E0F46044675693068001DBC
:102A400000F014FC601C07D137B13168BDE8F041DB
:102A50000D48091D00F05ABC30682C44AC4244605B
:102A6000316805D2B068BDE8F041091D00F036BC00
:102A70007068091D00F032FC306B844200D2346370
:102A8000BDE8F08120000020941000202DE9F041E5
:102A9000054600F047FC2D4E3069401C306130681F
:102AA0002B4F10B1F06930B32BE03560306901284D
:102AB00027D1002404EB840007EB800000F000FC29
:102AC000641C382CF6D3234800F0FAFB214814305C
:102AD00000F0F6FB1F48283000F0F2FB1D483C30A8
:102AE00000F0EEFB1B48503000F0EAFB1948706024
:102AF0001430B06005E03068E96AC06A884200D8E6
:102B00003560F06A401CF0626864E86AB169884226
:102B100000D9B06100EB800007EB8000291D00F0B8
:102B2000F5FB00F01FFCF06900280CD03068E96A62
:102B3000C06A884207D208494FF080500860BFF34E
:102B40004F8FBFF36F8FBDE8F081000020000020A1
:102B5000E40B00204410002004ED00E038B500F044
:102B6000E1FB104CA068C8B90F4800F0A9FB0E4863
:102B7000143000F0A5FB0C482060143060600A4B54
:102B800000202833009003F1500210210A2000F0A9
:102B9000F7FDA06010B105A100F062FCBDE838406F
:102BA00000F0E0BB5C000020A8100020546D7251C2
:102BB0000000000030B4026C0B46002A0BD0C16844
:102BC0001144C1604468A14201D30168C16030BCB6
:102BD0001846FDF715BB30BC70472DE9F041856BF9
:102BE000174604460026026C82B1C7B1E068FDF7C3
:102BF00007FBE168206C091AE1602268914202D269
:102C00006168081AE060022F16D017E02068A8B9A2
:102C1000606801F0E5F80646002060600EE0A068FC
:102C2000FDF7EEFA216CA0680844A0606168884254
:102C300004D32068A06001E005B16D1E6D1CA56382
:102C40003046BDE8F08110B5044690F8590058B1FF
:102C500001280CD002280FD0502080F31188BFF338
:102C60004F8FBFF36F8FFEE7206B00F08FFB204686
:102C7000BDE8104000F08ABB10BD000010484FF4C2
:102C80004061420706D0C01D0D4920F00700411ADF
:102C9000C1F540610B4A00230144C2E90003083931
:102CA000103A21F0070111604B600B600B1AC0E96C
:102CB000001393604FF000405360D06070470000F5
:102CC0007818002084000020134E144DA6F29C4773
:102CD0004FF08058DFF8489011E000F023FBF068D7
:102CE000C468201D00F0C2FA2869401E2861E86807
:102CF000401EE86000F036FB2046FFF7A4FFE868BE
:102D00000028EAD138680128F9D9C9F80080BFF352
:102D10004F8FBFF36F8FF2E780100020200000205C
:102D200004ED00E070B51D46049C49B12260C4E981
:102D30000F010121204600F057FD84F84C5070BD72
:102D40002460F4E72DE9F0470E46DDE909841746D3
:102D5000824691009946089DA522206BFDF762FAF4
:102D60006FF00301206B01EB8701084420F0070797
:102D7000780707D0502080F31188BFF34F8FBFF33F
:102D80006F8FFEE72218315C82F83410315C11B18C
:102D9000401C1028F6D3002684F84360382D00D359
:102DA0003725E562C4E91356201D00F094FA04F1BA
:102DB000180000F090FA2461C5F138006462A06147
:102DC000666584F858604A465146384600F03CFA39
:102DD0002060B8F1000F01D0C8F80040BDE8F087CE
:102DE00030B5114900E011460A688242FBD34B68B6
:102DF0005C18844203D14068184448600846436820
:102E00001C18944209D1084C103C2468A24209D0F5
:102E100052681A4442600A6812680260814200D017
:102E2000086030BD0460F9E78400002070B500241C
:102E300041600B4D0061914206D8D11A82699142DE
:102E400006D2011D686807E09A4203D2994201D375
:102E5000012403E0011D286800F040FA204670BDFF
:102E60005C00002010B5044600F05CFAA06B20B1B5
:102E7000002400F077FA204610BD0124F9E7000095
:102E800030B587B0304D55E00198002806DADDE90D
:102E90000301029A9047019800284BDB039C60696C
:102EA00010B1201D00F0E2F905A800F0B9F80246C3
:102EB00001980A283ED2DFE800F00505053D2637D7
:102EC00005053D260298A169034601442046FFF707
:102ED000ADFF00B3616A20468847E069012829D127
:102EE000002000900298A16900234218194620464C
:102EF00001F07CF878B9502080F31188BFF34F8F30
:102F0000BFF36F8FFEE70298A06128B181181346C6
:102F10002046FFF78BFF0DE0502080F31188BFF3B0
:102F20004F8FBFF36F8FFEE794F82C0010B9204647
:102F300000F02CFA002201A9A86800F0A9FD0028E1
:102F4000A2D107B030BD00005C0000202DE9FC419B
:102F50000E46054600F062FB01A800F061F8044649
:102F6000019818B100F0B2FFBDE8FC81224FAEB16C
:102F700078680068A8B30026291B3246B86800F0BC
:102F800081FA00F0A3FF0028EED11C494FF08050D9
:102F90000860BFF34F8FBFF36F8FE5E7A542EBD813
:102FA00000F094FF38682646C068C468201D00F011
:102FB0005DF9E069012810D1A0692B46411932461C
:102FC0002046FFF733FF40B1002003460146009042
:102FD0002A46204601F00AF820B1616A2046884757
:102FE000C2E707E0502080F31188BFF34F8FBFF393
:102FF0006F8FFEE70126BFE75C00002004ED00E0D4
:1030000006484168096829B14168C968C9684968C2
:10301000016370474FF0FF31FAE700002000002005
:1030200070B5054600F072FE064E044630698442D3
:1030300003D200F009F8012000E0002028602046BB
:10304000346170BD5C000020F8B5194E1FE0C06807
:10305000C4680568201D00F009F9616A20468847A8
:10306000E069012813D1A0692844A84206D9246147
:103070006060211D306800F031F908E0002003464F
:10308000014600902A46204600F0B0FF38B1306873
:1030900001680029DBD17168C6E90010F8BD502035
:1030A00080F31188BFF34F8FBFF36F8FFEE70000EF
:1030B0005C00002008484068401C4FF0500080F33E
:1030C000118804D0BFF34F8FBFF36F8FFEE7BFF3BC
:1030D0004F8FBFF36F8FFEE78C000020084C2068F5
:1030E000016839B1002139B10020FFF72FFFFFF748
:1030F000C7FEF4E70121F6E7C0680068F5E70000C5
:103100005C0000202DE9F041044600F00BF994F931
:10311000455004F1240609E0606A48B1304600F0E9
:103120009DFE08B100F0FEF96D1E6DB2002DF3DCBE
:103130004FF0FF3684F8456000F014F900F0F2F823
:1031400094F9445004F1100709E0206948B1384669
:1031500000F084FE08B100F0E5F96D1E6DB2002D9F
:10316000F3DC84F84460BDE8F04100F0FBB80000F7
:103170002DE9F0410546002600F050FA314F38683D
:1031800008B9FFF77BFDF86805424BD1C5B3083598
:1031900068070ED005F00700C0F108000544680775
:1031A00007D0502080F31188BFF34F8FBFF36F8F8C
:1031B000FEE72DB37868854234D82249103108469D
:1031C000046801E0214604466068A84202D22068F3
:1031D0000028F7D13868844224D00E68206808603F
:1031E00060680836411B10290FD96019420708D0C2
:1031F000502080F31188BFF34F8FBFF36F8FFEE72E
:1032000010E041606560FFF7EBFD61687868401A87
:103210007860BA68904200D2B860F8680143002034
:10322000C4E9000100F052FE700707D0502080F37F
:103230001188BFF34F8FBFF36F8FFEE73046BDE8B5
:10324000F08100007400002010B5031F4FF080745F
:103250001C601B1F21F001011960191F024B0B603C
:10326000143940380A6010BDB5300008D0E9013289
:1032700001699A60D0E901235A604A68824201D10B
:1032800082684A60002202610868401E086008687F
:1032900070470000034B036003F15C00086080206E
:1032A00010607047C0110020044B036003F15C0004
:1032B00008604FF480701060704700001C140020FC
:1032C00000F108014FF0FF32C0E90112C160016155
:1032D00000210160704700210161704730B50C6822
:1032E000621C02D000F1080202E0026904E01A4602
:1032F00053681D68A542FAD953684B6099608A608B
:10330000516008610168491C016030BD42684A6033
:1033100093688B6093685960916008610168491CEB
:1033200001607047502080F31188BFF34F8FBFF3C7
:103330006F8F0A494868401C486001280CD1084832
:10334000006810F0FF0F07D0502080F31188BFF302
:103350004F8FBFF36F8FFEE7704700008C00002097
:1033600004ED00E00849486828B1401E486001D1DA
:1033700080F311887047502080F31188BFF34F8F7E
:10338000BFF36F8FFEE700008C00002070B50028AF
:1033900027D0144DA0F108046068E968084207D1FD
:1033A000502080F31188BFF34F8FBFF36F8FFEE77C
:1033B00022683AB1502080F31188BFF34F8FBFF3DA
:1033C0006F8FFEE78843606000F028F960686968E5
:1033D000084468602046FFF703FDBDE8704000F038
:1033E00075BD70BD740000204FF0E0200021016128
:1033F000816105494FF47A720968B1FBF2F1491E07
:1034000041610721016170471C00002010B5FCF7E5
:10341000E1FE114910280ED300F1E02090F8F003EE
:103420000A78904207D2502080F31188BFF34F8F63
:10343000BFF36F8FFEE709480068896800F4E06019
:10344000884207D9502080F31188BFF34F8FBFF314
:103450006F8FFEE710BD00008C0000200CED00E037
:1034600010B5074B002253F832401CB1521C082AF9
:10347000F9D310BD43F8321003EBC201486010BD10
:10348000A40B002070B515460E460446FFF74AFF10
:1034900094F944100020491C01D184F8440094F9A7
:1034A0004510491C01D184F84500FFF75BFFA06B74
:1034B00028B92A46314604F1240000F051F820468C
:1034C000BDE87040FFF71EBE10B5020014D00F48D3
:1034D000806B38B1502080F31188BFF34F8FBFF35A
:1034E0006F8FFEE700F09AF800211046FFF7A0FA70
:1034F00000F0ECFC002807D105494FF0805008602F
:10350000BFF34F8FBFF36F8F10BD0000200000206E
:1035100004ED00E002498A6A02604969416070472F
:10352000200000200149012048627047200000204F
:1035300010B50C4650B1094909681831FFF7CEFEA5
:103540002046BDE810400121FFF772BA502080F3F9
:103550001188BFF34F8FBFF36F8FFEE7200000206D
:1035600070B514460D4668B10A4909681831FFF76D
:10357000CDFE0CB14FF0FF3521462846BDE8704026
:10358000FFF756BA502080F31188BFF34F8FBFF377
:103590006F8FFEE72000002030B587B0002503952F
:1035A00005AA04A903A80495FFF774FEDDE9030149
:1035B0000095CDE90110002314A11648059A00F0EA
:1035C0006AFB154C606318B100F0E0FC012809D0DB
:1035D000401C19D1502080F31188BFF34F8FBFF3E7
:1035E0006F8FFEE7502080F31188BFF34F8FBFF33A
:1035F0006F8F4FF0FF3020630120E061656107B0FD
:10360000BDE8304000F068B807B030BD49444C45D3
:1036100000000000C92C0008200000200248816B37
:10362000491C81637047000020000020164B10B534
:10363000986B10B10120586210BD00205862986943
:10364000124901E0B8B1401E00EB800251F822207F
:10365000002AF7D000EB800201EB820101F108049F
:103660004A6852684A60A24201D152684A60D168F1
:103670001960986110BD502080F31188BFF34F8FFF
:10368000BFF36F8FFEE7000020000020E40B002056
:1036900070B52020FFF76CFD040005D00025201D2B
:1036A0002560FFF70DFE2577204670BD38B558B16F
:1036B00020210446002000912060201DFFF700FE1D
:1036C00001202077204638BD502080F31188BFF3B9
:1036D0004F8FBFF36F8FFEE71CB526490878019026
:1036E000FF20087008788DF800009DF800009DF814
:1036F000002000F0F000904207D0502080F31188A5
:10370000BFF34F8FBFF36F8FFEE79DF800001A4B9A
:1037100000F0500018700720986006E0401E986086
:103720009DF8000040008DF800009DF800000006A4
:103730009868F3D4032807D0502080F31188BFF392
:103740004F8FBFF36F8FFEE74FF440709860019882
:1037500008700A48016841F470010160016841F095
:1037600070410160FFF740FE00205860FCF7FCFC50
:1037700000201CBD00E400E08C00002020ED00E0F3
:1037800038B5049D18B153B1CAB181B120E05020C1
:1037900080F31188BFF34F8FBFF36F8FFEE7502088
:1037A00080F31188BFF34F8FBFF36F8FFEE7502078
:1037B00080F31188BFF34F8FBFF36F8FFEE739B1EE
:1037C000502080F31188BFF34F8FBFF36F8FFEE758
:1037D00050241C46012384F846302B460094FFF702
:1037E000A1FA204638BD000070B50D46040025D072
:1037F000FFF798FDD4E90F20216802FB00116160FA
:103800000021A1632168A1600A46D4E90F01401E8E
:1038100000FB0121E16021464FF0FF3001F8440F29
:10382000487004F110008DB1FFF74AFD04F1240047
:10383000FFF746FDFFF796FD012070BD502080F395
:103840001188BFF34F8FBFF36F8FFEE72169002907
:10385000F0D000F003FB0028ECD004494FF080507A
:103860000860BFF34F8FBFF36F8FE3E704ED00E015
:103870002DE9FF4F83B01F468B4604004FF0000632
:1038800003D0BBF1000F08D011E0502080F3118865
:10389000BFF34F8FBFF36F8FFEE7206C38B150201E
:1038A00080F31188BFF34F8FBFF36F8FFEE7022FB6
:1038B0000AD1E06B012807D0502080F31188BFF3B4
:1038C0004F8FBFF36F8FFEE700F012FADFF8009121
:1038D0004FF0000A4FF0805848B9059838B1502091
:1038E00080F31188BFF34F8FBFF36F8FFEE7FFF7B1
:1038F00019FDA06BE16B884205D3022F03D0059818
:10390000C8B1DEB11EE03A4659462046FFF765F9D8
:10391000616A19B104F1240000F0A0FA28B1C9F8D5
:103920000080BFF34F8FBFF36F8FFFF71BFD0120A8
:1039300007B0BDE8F08FFFF715FD21E06846FFF7FF
:10394000E9FD0126FFF70EFDFFF768FEFFF7EAFC31
:1039500094F94400401C01D184F844A094F9450036
:10396000401C01D184F845A0FFF7FCFC05A968467E
:1039700000F02AF930B12046FFF7C4FB00F0A6FAA8
:103980000020D5E7FFF7CEFCA06BE16B884201D1A8
:10399000012500E00025FFF7E5FC95B104F11000DA
:1039A0000599FFF7C5FD2046FFF7ACFB00F08EFA46
:1039B00000289CD1C9F80080BFF34F8FBFF36F8FF1
:1039C00095E72046FFF79EFB00F080FA8FE70000A6
:1039D00004ED00E02DE9F0471F46904689460400BB
:1039E00003D0B9F1000F08D011E0502080F3118806
:1039F000BFF34F8FBFF36F8FFEE7206C38B15020BD
:103A000080F31188BFF34F8FBFF36F8FFEE7022F54
:103A10000AD1E06B012807D0502080F31188BFF352
:103A20004F8FBFF36F8FFEE7FFF7F0FC5020EFF3EF
:103A3000118680F31188BFF34F8FBFF36F8FA06B98
:103A4000E16B884206D3022F04D0002086F3118850
:103A5000BDE8F08794F945503A4649462046FFF7BD
:103A6000BCF8681C04D06D1C84F845500120EDE7BB
:103A7000606A0028FAD004F1240000F0EFF9002871
:103A8000F4D0B8F1000FF1D00121C8F80010EDE733
:103A90002DE9F74783B08A4604004FF0000603D0B3
:103AA000BAF1000F08D011E0502080F31188BFF365
:103AB0004F8FBFF36F8FFEE7206C38B1502080F33B
:103AC0001188BFF34F8FBFF36F8FFEE700F010F93F
:103AD000DFF8F09000274FF0805848B9059838B1CA
:103AE000502080F31188BFF34F8FBFF36F8FFEE735
:103AF000FFF718FCA56BC5B151462046FFF75AF8F1
:103B00006D1EA563206950B104F1100000F0A6F904
:103B100028B1C9F80080BFF34F8FBFF36F8FFFF755
:103B200021FC012006B0BDE8F087059808B11EB160
:103B300006E0FFF717FC27E06846FFF7EBFC0126DD
:103B4000FFF710FCFFF76AFDFFF7ECFB94F9440068
:103B5000401C01D184F8447094F94500401C01D107
:103B600084F84570FFF7FEFB05A9684600F02CF8C5
:103B7000002820460AD0FFF7C5FA00F0A7F9204632
:103B8000FFF770F90028B3D00020CBE7FFF76AF900
:103B900090B104F124000599FFF7CAFC2046FFF715
:103BA000B1FA00F093F90028A2D1C9F80080BFF360
:103BB0004F8FBFF36F8F9BE72046FFF7A3FA00F00C
:103BC00085F995E704ED00E02DE9F0410C4605008C
:103BD00011D0C4B1FFF7A6FB174E71696B6822685C
:103BE000C81A571C17D02F68B66AB74219D08B4233
:103BF00017D8012410E0502080F31188BFF34F8FB5
:103C0000BFF36F8FFEE7502080F31188BFF34F8F13
:103C1000BFF36F8FFEE70024FFF7A4FB2046BDE84B
:103C2000F081824205D9101A20602846FFF772FC05
:103C3000F1E700202060DCE7200000202DE9FF5F95
:103C40008346DDE90E87994616468A469000FFF7BF
:103C50008FFA05001CD05C20FFF78AFA040014D00C
:103C60000020256384F85900CDE90240CDE90087A2
:103C70004B46324651465846FFF764F82046FEF759
:103C800005FF012004B0BDE8F09F2846FFF77EFB4A
:103C90004FF0FF30F6E7F0B585B00546DDE90B04DF
:103CA0000A9EA8B1E4B15C2700972063022084F843
:103CB00059000020CDE9024004AF2846CDE9006755
:103CC000FFF740F82046FEF7E1FE049805B0F0BD8E
:103CD000502080F31188BFF34F8FBFF36F8FFEE743
:103CE000502080F31188BFF34F8FBFF36F8FFEE733
:103CF0000548C16919B1806B18B1002070470120D7
:103D000070470220704700002000002001484069F1
:103D100070470000200000202DE9F0412E4F0026C2
:103D2000B86B40B1386A401C3862786A00B101262D
:103D30003046BDE8F0817D696D1C7D6113D17868E6
:103D4000006838B1502080F31188BFF34F8FBFF364
:103D50006F8FFEE77868B9687960B860B86A401C10
:103D6000B862FFF74DF9386BDFF87080854209D3F0
:103D70007868006880B17868C068C4686068854207
:103D80000DD238633868C06A00EB800158F8210012
:103D90000128CAD90126C8E74FF0FF30F1E7201DFE
:103DA000FFF764FAA06A18B104F11800FFF75EFA91
:103DB000E06AB969884200D9B86100EB800108EB7C
:103DC0008100211DFFF7A2FAE06A3968C96A8842BA
:103DD000CED30126CCE7000020000020E40B002019
:103DE00070B504004FF000002BD01A4D29688C42AA
:103DF00007D0502080F31188BFF34F8FBFF36F8F30
:103E0000FEE7216DF1B1491E2165E36CE26A9A4239
:103E100017D0002915D1201DFFF728FAE06CE062C9
:103E2000C0F13800A061E06AA969884200D9A861A0
:103E3000094900EB800001EB8000211DFFF766FAC5
:103E4000012070BD502080F31188BFF34F8FBFF366
:103E50006F8FFEE720000020E40B002070B5C068E3
:103E6000C46854B104F118000646FFF7FFF9144D79
:103E7000A86B50B13146134815E0502080F31188EB
:103E8000BFF34F8FBFF36F8FFEE7201DFFF7EEF9F3
:103E9000E06AA969884200D9A8610B4900EB80005B
:103EA00001EB8000211DFFF731FAE06A2968C96A39
:103EB000884202D90120686270BD002070BD0000F8
:103EC000200000206C100020E40B00202DE9F047BA
:103ED0002B4D00242746A86B38B1FFF723FAA86BB7
:103EE000401EA863A86B40B145E0502080F31188C4
:103EF000BFF34F8FBFF36F8FFEE72869214901267B
:103F0000C8B3A1F591698846D8F80010E1B1D8F896
:103F10000C00C46804F11800FFF7A8F9201DFFF792
:103F2000A5F9E06AA969884200D9A86100EB80017F
:103F300009EB8100211DFFF7E9F9E06A2968C96AE8
:103F40008842E1D36E62DFE70CB1FFF759F82C6AC3
:103F50003CB1FFF7E1FE00B16E62641EF9D10020B2
:103F60002862686A38B10849012738070860BFF33A
:103F70004F8FBFF36F8FFFF7F5F93846BDE8F08735
:103F8000200000206C10002004ED00E010B586B089
:103F9000FEF7E4FD114CA068B8B100200390049036
:103FA00005AA04A903A8FFF77FF9DDE90321022090
:103FB0008DE8070000230AA10B48059AFFF76BFE66
:103FC000E06010B106B0012010BD502080F31188D0
:103FD000BFF34F8FBFF36F8FFEE700005C00002040
:103FE000546D722053766300DD3000082DE9FF41E7
:103FF0001F4603000A9E4FF0000015D0134DAC6819
:10400000002C0ED08DE80E00062917DAFFF770FE9F
:1040100002284FF000030FD000226946A868FFF77E
:1040200027FC04B0BDE8F081502080F31188BFF375
:104030004F8FBFF36F8FFEE73246EEE700233A461D
:1040400069462046FFF7C6FCEBE700005C00002055
:10405000E040000800000000000000000000000038
:104060000000000000020000180000000000000036
:1040700000000000D4400008000000000000000024
:104080000000000000000000000200000800000026
:104090000000000000000000EC40000800000000EC
:1040A00000000000000000000102020304050607F2
:1040B00008090A0B0C0D0E0F101000000000000084
:1040C00000000102030406070809000000000102C5
:1040D000030400004B45595F5343414E000000006C
:1040E00064656661756C745461736B004B45595F10
:1040F0004576656E7400000018410008000000203D
:10410000980000002A280008B0410008980000200C
:10411000E02700003A28000800000000000000002E
:10412000000000000000000001000000100000007E
:10413000000000000024F400000000000000000067
:10414000000000000000000000000000000000006F
:10415000000000000000000000000000000000005F
:10416000000000000000000000000000000000004F
:10417000000000000000000000000000000000003F
:10418000000000000000000000000000000000002F
:10419000000000000000000000000000000000001F
:1041A0000000000000000000AAAAAAAA0000000067
:0400000508000131BD
:00000001FF
